{
  "contractName": "MessageList",
  "abi": [
    {
      "anonymous": false,
      "inputs": [
        {
          "indexed": false,
          "name": "count",
          "type": "uint256"
        },
        {
          "indexed": false,
          "name": "content",
          "type": "string"
        },
        {
          "indexed": false,
          "name": "sender",
          "type": "address"
        },
        {
          "indexed": false,
          "name": "reciever",
          "type": "address"
        }
      ],
      "name": "MessageCreated",
      "type": "event"
    },
    {
      "constant": false,
      "inputs": [
        {
          "name": "_content",
          "type": "string"
        },
        {
          "name": "reciever",
          "type": "address"
        }
      ],
      "name": "createMessage",
      "outputs": [],
      "payable": false,
      "stateMutability": "nonpayable",
      "type": "function"
    },
    {
      "constant": true,
      "inputs": [
        {
          "name": "reciever",
          "type": "address"
        }
      ],
      "name": "getMessages",
      "outputs": [
        {
          "components": [
            {
              "name": "content",
              "type": "string"
            },
            {
              "name": "senderAddr",
              "type": "address"
            },
            {
              "name": "time",
              "type": "uint256"
            }
          ],
          "name": "",
          "type": "tuple[]"
        }
      ],
      "payable": false,
      "stateMutability": "view",
      "type": "function"
    }
  ],
  "bytecode": "0x608060405234801561001057600080fd5b5061096c806100206000396000f3fe60806040526004361061004c576000357c0100000000000000000000000000000000000000000000000000000000900463ffffffff168063b2f7132214610051578063d4ab39b11461008e575b600080fd5b34801561005d57600080fd5b5061007860048036036100739190810190610585565b6100b7565b6040516100859190610759565b60405180910390f35b34801561009a57600080fd5b506100b560048036036100b091908101906105ae565b6102a6565b005b606060008060008473ffffffffffffffffffffffffffffffffffffffff1673ffffffffffffffffffffffffffffffffffffffff16815260200190815260200160002090506060816001015460405190808252806020026020018201604052801561013b57816020015b61012861043e565b8152602001906001900390816101205790505b50905060008090505b826001015481101561029b5782600201600082815260200190815260200160002060606040519081016040529081600082018054600181600116156101000203166002900480601f01602080910402602001604051908101604052809291908181526020018280546001816001161561010002031660029004801561020a5780601f106101df5761010080835404028352916020019161020a565b820191906000526020600020905b8154815290600101906020018083116101ed57829003601f168201915b505050505081526020016001820160009054906101000a900473ffffffffffffffffffffffffffffffffffffffff1673ffffffffffffffffffffffffffffffffffffffff1673ffffffffffffffffffffffffffffffffffffffff168152602001600282015481525050828281518110151561028157fe5b906020019060200201819052508080600101915050610144565b508092505050919050565b60008060008373ffffffffffffffffffffffffffffffffffffffff1673ffffffffffffffffffffffffffffffffffffffff16815260200190815260200160002090508060000160009054906101000a900460ff1615156103285760018160000160006101000a81548160ff021916908315150217905550600081600101819055505b6060604051908101604052808481526020013373ffffffffffffffffffffffffffffffffffffffff1681526020014281525081600201600083600101548152602001908152602001600020600082015181600001908051906020019061038f929190610476565b5060208201518160010160006101000a81548173ffffffffffffffffffffffffffffffffffffffff021916908373ffffffffffffffffffffffffffffffffffffffff1602179055506040820151816002015590505080600101600081548092919060010191905055507f39770d90d9e40a0cbe2bb2ee5c98545f5974c7f276b95e58d2f4cc969beed5668160010154843385604051610431949392919061077b565b60405180910390a1505050565b60606040519081016040528060608152602001600073ffffffffffffffffffffffffffffffffffffffff168152602001600081525090565b828054600181600116156101000203166002900490600052602060002090601f016020900481019282601f106104b757805160ff19168380011785556104e5565b828001600101855582156104e5579182015b828111156104e45782518255916020019190600101906104c9565b5b5090506104f291906104f6565b5090565b61051891905b808211156105145760008160009055506001016104fc565b5090565b90565b60006105278235610897565b905092915050565b600082601f830112151561054257600080fd5b8135610555610550826107f4565b6107c7565b9150808252602083016020830185838301111561057157600080fd5b61057c8382846108df565b50505092915050565b60006020828403121561059757600080fd5b60006105a58482850161051b565b91505092915050565b600080604083850312156105c157600080fd5b600083013567ffffffffffffffff8111156105db57600080fd5b6105e78582860161052f565b92505060206105f88582860161051b565b9150509250929050565b61060b816108a9565b82525050565b61061a8161085b565b82525050565b600061062b8261082d565b8084526020840193508360208202850161064485610820565b60005b8481101561067d57838303885261065f8383516106fa565b925061066a8261084e565b9150602088019750600181019050610647565b508196508694505050505092915050565b600061069982610843565b8084526106ad8160208601602086016108ee565b6106b681610921565b602085010191505092915050565b60006106cf82610838565b8084526106e38160208601602086016108ee565b6106ec81610921565b602085010191505092915050565b6000606083016000830151848203600086015261071782826106c4565b915050602083015161072c6020860182610611565b50604083015161073f604086018261074a565b508091505092915050565b6107538161088d565b82525050565b600060208201905081810360008301526107738184610620565b905092915050565b6000608082019050610790600083018761074a565b81810360208301526107a2818661068e565b90506107b16040830185610602565b6107be6060830184610611565b95945050505050565b6000604051905081810181811067ffffffffffffffff821117156107ea57600080fd5b8060405250919050565b600067ffffffffffffffff82111561080b57600080fd5b601f19601f8301169050602081019050919050565b6000602082019050919050565b600081519050919050565b600081519050919050565b600081519050919050565b6000602082019050919050565b60006108668261086d565b9050919050565b600073ffffffffffffffffffffffffffffffffffffffff82169050919050565b6000819050919050565b60006108a28261086d565b9050919050565b60006108b4826108bb565b9050919050565b60006108c6826108cd565b9050919050565b60006108d88261086d565b9050919050565b82818337600083830152505050565b60005b8381101561090c5780820151818401526020810190506108f1565b8381111561091b576000848401525b50505050565b6000601f19601f830116905091905056fea265627a7a72305820481326d8fcef73a1415e41338f2291c3196729847fb44f874540029277438fa96c6578706572696d656e74616cf50037",
  "source": "pragma solidity >=0.4.22 <0.9.0;\npragma experimental ABIEncoderV2;\n\ncontract MessageList {\n    struct Message {\n        string content;\n        address senderAddr;\n        uint256 time;\n    }\n\n    struct Client {\n        bool initialized;\n        uint256 messageCount;\n        mapping(uint256 => Message) messages;\n    }\n\n    event MessageCreated(\n        uint256 count,\n        string content,\n        address sender,\n        address reciever\n    );\n\n    mapping(address => Client) private clients;\n\n    function createMessage(string memory _content, address reciever) public {\n        Client storage recv = clients[reciever];\n\n        if (!recv.initialized) {\n            recv.initialized = true;\n            recv.messageCount = 0;\n        }\n\n        recv.messages[recv.messageCount] = Message({\n            content: _content,\n            senderAddr: msg.sender,\n            time: block.timestamp\n        });\n        recv.messageCount++;\n\n        emit MessageCreated(recv.messageCount, _content, msg.sender, reciever);\n    }\n\n    function getMessages(address reciever) public view returns (Message[] memory) {\n        Client storage recv = clients[reciever];\n        Message[] memory res = new Message[](recv.messageCount);\n\n        for (uint256 i = 0; i<recv.messageCount; i++ ) {\n            res[i] = recv.messages[i];\n        }\n        \n        return res;\n    }\n}\n",
  "sourcePath": "/home/rpi/slavkaone/eth/contracts/MessageList.sol",
  "compiler": {
    "name": "solc",
    "version": "0.5.0+commit.1d4f565a.Emscripten.clang"
  },
  "schemaVersion": "3.0.1",
  "updatedAt": "2021-06-09T10:54:01.985Z",
  "devdoc": {
    "methods": {}
  },
  "userdoc": {
    "methods": {}
  }
}