{
  "contractName": "MessageList",
  "abi": [
    {
      "anonymous": false,
      "inputs": [
        {
          "indexed": false,
          "name": "count",
          "type": "uint256"
        },
        {
          "indexed": false,
          "name": "sender",
          "type": "address"
        },
        {
          "indexed": false,
          "name": "reciever",
          "type": "address"
        }
      ],
      "name": "MessageCreated",
      "type": "event"
    },
    {
      "constant": false,
      "inputs": [
        {
          "name": "_content",
          "type": "string"
        },
        {
          "name": "reciever",
          "type": "address"
        }
      ],
      "name": "createMessage",
      "outputs": [
        {
          "name": "",
          "type": "uint256"
        }
      ],
      "payable": false,
      "stateMutability": "nonpayable",
      "type": "function"
    },
    {
      "constant": true,
      "inputs": [
        {
          "name": "reciever",
          "type": "address"
        },
        {
          "name": "sender",
          "type": "address"
        }
      ],
      "name": "getMessages",
      "outputs": [
        {
          "components": [
            {
              "name": "content",
              "type": "string"
            },
            {
              "name": "senderAddr",
              "type": "address"
            },
            {
              "name": "time",
              "type": "uint256"
            }
          ],
          "name": "",
          "type": "tuple[]"
        }
      ],
      "payable": false,
      "stateMutability": "view",
      "type": "function"
    }
  ],
  "bytecode": "0x608060405234801561001057600080fd5b50610bf6806100206000396000f3fe60806040526004361061004c576000357c0100000000000000000000000000000000000000000000000000000000900463ffffffff168063aa3ef80e14610051578063d4ab39b11461008e575b600080fd5b34801561005d57600080fd5b5061007860048036036100739190810190610837565b6100cb565b60405161008591906109e8565b60405180910390f35b34801561009a57600080fd5b506100b560048036036100b09190810190610873565b610554565b6040516100c29190610a0a565b60405180910390f35b606060008060008573ffffffffffffffffffffffffffffffffffffffff1673ffffffffffffffffffffffffffffffffffffffff168152602001908152602001600020905060008060008573ffffffffffffffffffffffffffffffffffffffff1673ffffffffffffffffffffffffffffffffffffffff16815260200190815260200160002090506060816001015483600101540160405190808252806020026020018201604052801561019757816020015b6101846106f0565b81526020019060019003908161017c5790505b509050600080905060008090505b8460010154811115156103725784600201600082815260200190815260200160002060010160009054906101000a900473ffffffffffffffffffffffffffffffffffffffff1673ffffffffffffffffffffffffffffffffffffffff168773ffffffffffffffffffffffffffffffffffffffff1614156103655784600201600082815260200190815260200160002060606040519081016040529081600082018054600181600116156101000203166002900480601f0160208091040260200160405190810160405280929190818152602001828054600181600116156101000203166002900480156102d85780601f106102ad576101008083540402835291602001916102d8565b820191906000526020600020905b8154815290600101906020018083116102bb57829003601f168201915b505050505081526020016001820160009054906101000a900473ffffffffffffffffffffffffffffffffffffffff1673ffffffffffffffffffffffffffffffffffffffff1673ffffffffffffffffffffffffffffffffffffffff168152602001600282015481525050838381518110151561034f57fe5b9060200190602002018190525081806001019250505b80806001019150506101a5565b5060008090505b8360010154811115156105465783600201600082815260200190815260200160002060010160009054906101000a900473ffffffffffffffffffffffffffffffffffffffff1673ffffffffffffffffffffffffffffffffffffffff168873ffffffffffffffffffffffffffffffffffffffff1614156105395783600201600082815260200190815260200160002060606040519081016040529081600082018054600181600116156101000203166002900480601f0160208091040260200160405190810160405280929190818152602001828054600181600116156101000203166002900480156104ac5780601f10610481576101008083540402835291602001916104ac565b820191906000526020600020905b81548152906001019060200180831161048f57829003601f168201915b505050505081526020016001820160009054906101000a900473ffffffffffffffffffffffffffffffffffffffff1673ffffffffffffffffffffffffffffffffffffffff1673ffffffffffffffffffffffffffffffffffffffff168152602001600282015481525050838381518110151561052357fe5b9060200190602002018190525081806001019250505b8080600101915050610379565b508194505050505092915050565b6000806000808473ffffffffffffffffffffffffffffffffffffffff1673ffffffffffffffffffffffffffffffffffffffff16815260200190815260200160002090508060000160009054906101000a900460ff1615156105d75760018160000160006101000a81548160ff021916908315150217905550600081600101819055505b6060604051908101604052808581526020013373ffffffffffffffffffffffffffffffffffffffff1681526020014281525081600201600083600101548152602001908152602001600020600082015181600001908051906020019061063e929190610728565b5060208201518160010160006101000a81548173ffffffffffffffffffffffffffffffffffffffff021916908373ffffffffffffffffffffffffffffffffffffffff1602179055506040820151816002015590505080600101600081548092919060010191905055507f4f72a37d9f9e1bf477dadee4a4e8da66b6cb01c05674ec446e688fe31b467dc3816001015433856040516106de93929190610a25565b60405180910390a14291505092915050565b60606040519081016040528060608152602001600073ffffffffffffffffffffffffffffffffffffffff168152602001600081525090565b828054600181600116156101000203166002900490600052602060002090601f016020900481019282601f1061076957805160ff1916838001178555610797565b82800160010185558215610797579182015b8281111561079657825182559160200191906001019061077b565b5b5090506107a491906107a8565b5090565b6107ca91905b808211156107c65760008160009055506001016107ae565b5090565b90565b60006107d98235610b21565b905092915050565b600082601f83011215156107f457600080fd5b813561080761080282610a89565b610a5c565b9150808252602083016020830185838301111561082357600080fd5b61082e838284610b69565b50505092915050565b6000806040838503121561084a57600080fd5b6000610858858286016107cd565b9250506020610869858286016107cd565b9150509250929050565b6000806040838503121561088657600080fd5b600083013567ffffffffffffffff8111156108a057600080fd5b6108ac858286016107e1565b92505060206108bd858286016107cd565b9150509250929050565b6108d081610b33565b82525050565b6108df81610ae5565b82525050565b60006108f082610ac2565b8084526020840193508360208202850161090985610ab5565b60005b84811015610942578383038852610924838351610989565b925061092f82610ad8565b915060208801975060018101905061090c565b508196508694505050505092915050565b600061095e82610acd565b808452610972816020860160208601610b78565b61097b81610bab565b602085010191505092915050565b600060608301600083015184820360008601526109a68282610953565b91505060208301516109bb60208601826108d6565b5060408301516109ce60408601826109d9565b508091505092915050565b6109e281610b17565b82525050565b60006020820190508181036000830152610a0281846108e5565b905092915050565b6000602082019050610a1f60008301846109d9565b92915050565b6000606082019050610a3a60008301866109d9565b610a4760208301856108c7565b610a5460408301846108d6565b949350505050565b6000604051905081810181811067ffffffffffffffff82111715610a7f57600080fd5b8060405250919050565b600067ffffffffffffffff821115610aa057600080fd5b601f19601f8301169050602081019050919050565b6000602082019050919050565b600081519050919050565b600081519050919050565b6000602082019050919050565b6000610af082610af7565b9050919050565b600073ffffffffffffffffffffffffffffffffffffffff82169050919050565b6000819050919050565b6000610b2c82610af7565b9050919050565b6000610b3e82610b45565b9050919050565b6000610b5082610b57565b9050919050565b6000610b6282610af7565b9050919050565b82818337600083830152505050565b60005b83811015610b96578082015181840152602081019050610b7b565b83811115610ba5576000848401525b50505050565b6000601f19601f830116905091905056fea265627a7a723058204615f3ee4b4e72ab9763b7418b4f585c5adb47c9f22d5adb5da25fa3878978d16c6578706572696d656e74616cf50037",
  "source": "pragma solidity >=0.4.22 <0.9.0;\npragma experimental ABIEncoderV2;\n\ncontract MessageList {\n    struct Message {\n        string content;\n        address senderAddr;\n        uint256 time;\n    }\n\n    struct Client {\n        bool initialized;\n        uint256 messageCount;\n        mapping(uint256 => Message) messages;\n    }\n\n    event MessageCreated(\n        uint256 count,\n        address sender,\n        address reciever\n    );\n\n    mapping(address => Client) private clients;\n\n    function createMessage(string memory _content, address reciever) public returns (uint256) {\n        Client storage recv = clients[reciever];\n\n        if (!recv.initialized) {\n            recv.initialized = true;\n            recv.messageCount = 0;\n        }\n\n        recv.messages[recv.messageCount] = Message({\n            content: _content,\n            senderAddr: msg.sender,\n            time: block.timestamp\n        });\n        recv.messageCount++;\n\n        emit MessageCreated(recv.messageCount, msg.sender, reciever);\n        return block.timestamp;\n    }\n\n    function getMessages(address reciever, address sender) public view returns (Message[] memory) {        \n        Client storage recv = clients[reciever];  \n        Client storage sndr = clients[sender];\n\n        Message[] memory res = new Message[](recv.messageCount+sndr.messageCount);\n        \n        uint256 j = 0;\n        for (uint256 i = 0; i<=recv.messageCount; i++ ) {\n            if(sender == recv.messages[i].senderAddr){\n                res[j] = recv.messages[i];\n                j++;\n            }\n        }\n        for (uint256 i = 0; i<=sndr.messageCount; i++ ) {\n            if(reciever == sndr.messages[i].senderAddr){\n                res[j] = sndr.messages[i];\n                j++;\n            }\n        }        \n        return res;\n    }\n}\n",
  "sourcePath": "/home/rpi/slavkaone/eth/contracts/MessageList.sol",
  "compiler": {
    "name": "solc",
    "version": "0.5.0+commit.1d4f565a.Emscripten.clang"
  },
  "schemaVersion": "3.0.1",
  "updatedAt": "2021-06-12T18:28:26.089Z",
  "devdoc": {
    "methods": {}
  },
  "userdoc": {
    "methods": {}
  }
}