{
  "contractName": "MessageList",
  "abi": [
    {
      "anonymous": false,
      "inputs": [
        {
          "indexed": false,
          "name": "count",
          "type": "uint256"
        },
        {
          "indexed": false,
          "name": "sender",
          "type": "address"
        },
        {
          "indexed": false,
          "name": "reciever",
          "type": "address"
        }
      ],
      "name": "MessageCreated",
      "type": "event"
    },
    {
      "constant": false,
      "inputs": [
        {
          "name": "_content",
          "type": "string"
        },
        {
          "name": "reciever",
          "type": "address"
        }
      ],
      "name": "createMessage",
      "outputs": [],
      "payable": false,
      "stateMutability": "nonpayable",
      "type": "function"
    },
    {
      "constant": true,
      "inputs": [
        {
          "name": "reciever",
          "type": "address"
        },
        {
          "name": "sender",
          "type": "address"
        }
      ],
      "name": "getMessages",
      "outputs": [
        {
          "components": [
            {
              "name": "content",
              "type": "string"
            },
            {
              "name": "senderAddr",
              "type": "address"
            },
            {
              "name": "time",
              "type": "uint256"
            }
          ],
          "name": "",
          "type": "tuple[]"
        }
      ],
      "payable": false,
      "stateMutability": "view",
      "type": "function"
    }
  ],
  "bytecode": "0x608060405234801561001057600080fd5b506109d5806100206000396000f3fe60806040526004361061004c576000357c0100000000000000000000000000000000000000000000000000000000900463ffffffff168063aa3ef80e14610051578063d4ab39b11461008e575b600080fd5b34801561005d57600080fd5b5061007860048036036100739190810190610631565b6100b7565b60405161008591906107e2565b60405180910390f35b34801561009a57600080fd5b506100b560048036036100b0919081019061066d565b610354565b005b606060008060008573ffffffffffffffffffffffffffffffffffffffff1673ffffffffffffffffffffffffffffffffffffffff16815260200190815260200160002090506060816001015460405190808252806020026020018201604052801561013b57816020015b6101286104ea565b8152602001906001900390816101205790505b5090508473ffffffffffffffffffffffffffffffffffffffff163373ffffffffffffffffffffffffffffffffffffffff1614151561017d57809250505061034e565b60008090505b82600101548110156103475782600201600082815260200190815260200160002060010160009054906101000a900473ffffffffffffffffffffffffffffffffffffffff1673ffffffffffffffffffffffffffffffffffffffff168573ffffffffffffffffffffffffffffffffffffffff16141561033a5782600201600082815260200190815260200160002060606040519081016040529081600082018054600181600116156101000203166002900480601f0160208091040260200160405190810160405280929190818152602001828054600181600116156101000203166002900480156102b55780601f1061028a576101008083540402835291602001916102b5565b820191906000526020600020905b81548152906001019060200180831161029857829003601f168201915b505050505081526020016001820160009054906101000a900473ffffffffffffffffffffffffffffffffffffffff1673ffffffffffffffffffffffffffffffffffffffff1673ffffffffffffffffffffffffffffffffffffffff168152602001600282015481525050828281518110151561032c57fe5b906020019060200201819052505b8080600101915050610183565b5080925050505b92915050565b60008060008373ffffffffffffffffffffffffffffffffffffffff1673ffffffffffffffffffffffffffffffffffffffff16815260200190815260200160002090508060000160009054906101000a900460ff1615156103d65760018160000160006101000a81548160ff021916908315150217905550600081600101819055505b6060604051908101604052808481526020013373ffffffffffffffffffffffffffffffffffffffff1681526020014281525081600201600083600101548152602001908152602001600020600082015181600001908051906020019061043d929190610522565b5060208201518160010160006101000a81548173ffffffffffffffffffffffffffffffffffffffff021916908373ffffffffffffffffffffffffffffffffffffffff1602179055506040820151816002015590505080600101600081548092919060010191905055507f4f72a37d9f9e1bf477dadee4a4e8da66b6cb01c05674ec446e688fe31b467dc3816001015433846040516104dd93929190610804565b60405180910390a1505050565b60606040519081016040528060608152602001600073ffffffffffffffffffffffffffffffffffffffff168152602001600081525090565b828054600181600116156101000203166002900490600052602060002090601f016020900481019282601f1061056357805160ff1916838001178555610591565b82800160010185558215610591579182015b82811115610590578251825591602001919060010190610575565b5b50905061059e91906105a2565b5090565b6105c491905b808211156105c05760008160009055506001016105a8565b5090565b90565b60006105d38235610900565b905092915050565b600082601f83011215156105ee57600080fd5b81356106016105fc82610868565b61083b565b9150808252602083016020830185838301111561061d57600080fd5b610628838284610948565b50505092915050565b6000806040838503121561064457600080fd5b6000610652858286016105c7565b9250506020610663858286016105c7565b9150509250929050565b6000806040838503121561068057600080fd5b600083013567ffffffffffffffff81111561069a57600080fd5b6106a6858286016105db565b92505060206106b7858286016105c7565b9150509250929050565b6106ca81610912565b82525050565b6106d9816108c4565b82525050565b60006106ea826108a1565b8084526020840193508360208202850161070385610894565b60005b8481101561073c57838303885261071e838351610783565b9250610729826108b7565b9150602088019750600181019050610706565b508196508694505050505092915050565b6000610758826108ac565b80845261076c816020860160208601610957565b6107758161098a565b602085010191505092915050565b600060608301600083015184820360008601526107a0828261074d565b91505060208301516107b560208601826106d0565b5060408301516107c860408601826107d3565b508091505092915050565b6107dc816108f6565b82525050565b600060208201905081810360008301526107fc81846106df565b905092915050565b600060608201905061081960008301866107d3565b61082660208301856106c1565b61083360408301846106d0565b949350505050565b6000604051905081810181811067ffffffffffffffff8211171561085e57600080fd5b8060405250919050565b600067ffffffffffffffff82111561087f57600080fd5b601f19601f8301169050602081019050919050565b6000602082019050919050565b600081519050919050565b600081519050919050565b6000602082019050919050565b60006108cf826108d6565b9050919050565b600073ffffffffffffffffffffffffffffffffffffffff82169050919050565b6000819050919050565b600061090b826108d6565b9050919050565b600061091d82610924565b9050919050565b600061092f82610936565b9050919050565b6000610941826108d6565b9050919050565b82818337600083830152505050565b60005b8381101561097557808201518184015260208101905061095a565b83811115610984576000848401525b50505050565b6000601f19601f830116905091905056fea265627a7a723058204dec642c31151bdac15d7f243ef387ddd2de3cdec5dc6c9daee9f45d34aa3ba16c6578706572696d656e74616cf50037",
  "source": "pragma solidity >=0.4.22 <0.9.0;\npragma experimental ABIEncoderV2;\n\ncontract MessageList {\n    struct Message {\n        string content;\n        address senderAddr;\n        uint256 time;\n    }\n\n    struct Client {\n        bool initialized;\n        uint256 messageCount;\n        mapping(uint256 => Message) messages;\n    }\n\n    event MessageCreated(\n        uint256 count,\n        address sender,\n        address reciever\n    );\n\n    mapping(address => Client) private clients;\n\n    function createMessage(string memory _content, address reciever) public {\n        Client storage recv = clients[reciever];\n\n        if (!recv.initialized) {\n            recv.initialized = true;\n            recv.messageCount = 0;\n        }\n\n        recv.messages[recv.messageCount] = Message({\n            content: _content,\n            senderAddr: msg.sender,\n            time: block.timestamp\n        });\n        recv.messageCount++;\n\n        emit MessageCreated(recv.messageCount, msg.sender, reciever);\n    }\n\n    function getMessages(address reciever, address sender) public view returns (Message[] memory) {        \n        Client storage recv = clients[reciever];    \n        Message[] memory res = new Message[](recv.messageCount);\n\n        if(msg.sender != reciever){\n            return res;\n        }\n\n        for (uint256 i = 0; i<recv.messageCount; i++ ) {\n            if(sender == recv.messages[i].senderAddr)\n                res[i] = recv.messages[i];\n        }\n        \n        return res;\n    }\n}\n",
  "sourcePath": "/home/rpi/slavkaone/eth/contracts/MessageList.sol",
  "compiler": {
    "name": "solc",
    "version": "0.5.0+commit.1d4f565a.Emscripten.clang"
  },
  "schemaVersion": "3.0.1",
  "updatedAt": "2021-06-11T11:12:57.205Z",
  "devdoc": {
    "methods": {}
  },
  "userdoc": {
    "methods": {}
  }
}