{
  "contractName": "MessageList",
  "abi": [
    {
      "anonymous": false,
      "inputs": [
        {
          "indexed": false,
          "name": "count",
          "type": "uint256"
        },
        {
          "indexed": false,
          "name": "timestamp",
          "type": "uint256"
        }
      ],
      "name": "MessageCreated",
      "type": "event"
    },
    {
      "constant": false,
      "inputs": [
        {
          "name": "_content",
          "type": "string"
        },
        {
          "name": "reciever",
          "type": "address"
        }
      ],
      "name": "createMessage",
      "outputs": [],
      "payable": false,
      "stateMutability": "nonpayable",
      "type": "function"
    },
    {
      "constant": true,
      "inputs": [
        {
          "name": "client",
          "type": "address"
        }
      ],
      "name": "geClientCount",
      "outputs": [
        {
          "name": "",
          "type": "uint256"
        }
      ],
      "payable": false,
      "stateMutability": "view",
      "type": "function"
    },
    {
      "constant": true,
      "inputs": [
        {
          "name": "reciever",
          "type": "address"
        },
        {
          "name": "sender",
          "type": "address"
        },
        {
          "name": "offset",
          "type": "uint256"
        },
        {
          "name": "count",
          "type": "uint256"
        }
      ],
      "name": "getLastMessages",
      "outputs": [
        {
          "components": [
            {
              "name": "content",
              "type": "string"
            },
            {
              "name": "senderAddr",
              "type": "address"
            },
            {
              "name": "time",
              "type": "uint256"
            }
          ],
          "name": "",
          "type": "tuple[]"
        }
      ],
      "payable": false,
      "stateMutability": "view",
      "type": "function"
    }
  ],
  "bytecode": "0x608060405234801561001057600080fd5b50610cdf806100206000396000f3fe608060405260043610610057576000357c0100000000000000000000000000000000000000000000000000000000900463ffffffff1680634eb6d7be1461005c57806381bb755a14610099578063d4ab39b1146100d6575b600080fd5b34801561006857600080fd5b50610083600480360361007e9190810190610919565b6100ff565b6040516100909190610b2d565b60405180910390f35b3480156100a557600080fd5b506100c060048036036100bb9190810190610942565b61014f565b6040516100cd9190610b0b565b60405180910390f35b3480156100e257600080fd5b506100fd60048036036100f891908101906109a5565b610624565b005b6000806000808473ffffffffffffffffffffffffffffffffffffffff1673ffffffffffffffffffffffffffffffffffffffff16815260200190815260200160002090508060010154915050919050565b606060008060008773ffffffffffffffffffffffffffffffffffffffff1673ffffffffffffffffffffffffffffffffffffffff168152602001908152602001600020905060008060008773ffffffffffffffffffffffffffffffffffffffff1673ffffffffffffffffffffffffffffffffffffffff168152602001908152602001600020905060608460020260405190808252806020026020018201604052801561021457816020015b6102016107be565b8152602001906001900390816101f95790505b50905060008090508680600101975050836001015460018803101561041b576000846001015490505b600081111561041957868210151561025457610419565b846002016000898303815260200190815260200160002060010160009054906101000a900473ffffffffffffffffffffffffffffffffffffffff1673ffffffffffffffffffffffffffffffffffffffff168973ffffffffffffffffffffffffffffffffffffffff16141561040b57846002016000898303815260200190815260200160002060606040519081016040529081600082018054600181600116156101000203166002900480601f01602080910402602001604051908101604052809291908181526020018280546001816001161561010002031660029004801561037e5780601f106103535761010080835404028352916020019161037e565b820191906000526020600020905b81548152906001019060200180831161036157829003601f168201915b505050505081526020016001820160009054906101000a900473ffffffffffffffffffffffffffffffffffffffff1673ffffffffffffffffffffffffffffffffffffffff1673ffffffffffffffffffffffffffffffffffffffff16815260200160028201548152505083838151811015156103f557fe5b9060200190602002018190525081806001019250505b80806001900391505061023d565b505b8260010154600188031015610615576000836001015490505b600081111561061357866002028210151561044e57610613565b836002016000898303815260200190815260200160002060010160009054906101000a900473ffffffffffffffffffffffffffffffffffffffff1673ffffffffffffffffffffffffffffffffffffffff168a73ffffffffffffffffffffffffffffffffffffffff16141561060557836002016000898303815260200190815260200160002060606040519081016040529081600082018054600181600116156101000203166002900480601f0160208091040260200160405190810160405280929190818152602001828054600181600116156101000203166002900480156105785780601f1061054d57610100808354040283529160200191610578565b820191906000526020600020905b81548152906001019060200180831161055b57829003601f168201915b505050505081526020016001820160009054906101000a900473ffffffffffffffffffffffffffffffffffffffff1673ffffffffffffffffffffffffffffffffffffffff1673ffffffffffffffffffffffffffffffffffffffff16815260200160028201548152505083838151811015156105ef57fe5b9060200190602002018190525081806001019250505b808060019003915050610434565b505b81945050505050949350505050565b60008060008373ffffffffffffffffffffffffffffffffffffffff1673ffffffffffffffffffffffffffffffffffffffff16815260200190815260200160002090508060000160009054906101000a900460ff1615156106a65760018160000160006101000a81548160ff021916908315150217905550600081600101819055505b60004290506060604051908101604052808581526020013373ffffffffffffffffffffffffffffffffffffffff168152602001828152508260020160008460010154815260200190815260200160002060008201518160000190805190602001906107129291906107f6565b5060208201518160010160006101000a81548173ffffffffffffffffffffffffffffffffffffffff021916908373ffffffffffffffffffffffffffffffffffffffff1602179055506040820151816002015590505081600101600081548092919060010191905055507ff1ecf617a6a5601ac1ce6c8344ab90f8ce72404eefc2ab74138523fc991a9bba8260010154826040516107b0929190610b48565b60405180910390a150505050565b60606040519081016040528060608152602001600073ffffffffffffffffffffffffffffffffffffffff168152602001600081525090565b828054600181600116156101000203166002900490600052602060002090601f016020900481019282601f1061083757805160ff1916838001178555610865565b82800160010185558215610865579182015b82811115610864578251825591602001919060010190610849565b5b5090506108729190610876565b5090565b61089891905b8082111561089457600081600090555060010161087c565b5090565b90565b60006108a78235610c36565b905092915050565b600082601f83011215156108c257600080fd5b81356108d56108d082610b9e565b610b71565b915080825260208301602083018583830111156108f157600080fd5b6108fc838284610c52565b50505092915050565b60006109118235610c48565b905092915050565b60006020828403121561092b57600080fd5b60006109398482850161089b565b91505092915050565b6000806000806080858703121561095857600080fd5b60006109668782880161089b565b94505060206109778782880161089b565b935050604061098887828801610905565b925050606061099987828801610905565b91505092959194509250565b600080604083850312156109b857600080fd5b600083013567ffffffffffffffff8111156109d257600080fd5b6109de858286016108af565b92505060206109ef8582860161089b565b9150509250929050565b610a0281610bfa565b82525050565b6000610a1382610bd7565b80845260208401935083602082028501610a2c85610bca565b60005b84811015610a65578383038852610a47838351610aac565b9250610a5282610bed565b9150602088019750600181019050610a2f565b508196508694505050505092915050565b6000610a8182610be2565b808452610a95816020860160208601610c61565b610a9e81610c94565b602085010191505092915050565b60006060830160008301518482036000860152610ac98282610a76565b9150506020830151610ade60208601826109f9565b506040830151610af16040860182610afc565b508091505092915050565b610b0581610c2c565b82525050565b60006020820190508181036000830152610b258184610a08565b905092915050565b6000602082019050610b426000830184610afc565b92915050565b6000604082019050610b5d6000830185610afc565b610b6a6020830184610afc565b9392505050565b6000604051905081810181811067ffffffffffffffff82111715610b9457600080fd5b8060405250919050565b600067ffffffffffffffff821115610bb557600080fd5b601f19601f8301169050602081019050919050565b6000602082019050919050565b600081519050919050565b600081519050919050565b6000602082019050919050565b6000610c0582610c0c565b9050919050565b600073ffffffffffffffffffffffffffffffffffffffff82169050919050565b6000819050919050565b6000610c4182610c0c565b9050919050565b6000819050919050565b82818337600083830152505050565b60005b83811015610c7f578082015181840152602081019050610c64565b83811115610c8e576000848401525b50505050565b6000601f19601f830116905091905056fea265627a7a72305820b03d2d390e615998de7be2e8051de7a8f665440eb44f847302f45cd3907a15676c6578706572696d656e74616cf50037",
  "source": "pragma solidity >=0.4.22 <0.9.0;\npragma experimental ABIEncoderV2;\n\ncontract MessageList {\n    struct Message {\n        string content;\n        address senderAddr;\n        uint time;\n    }\n\n    struct Client {\n        bool initialized;\n        uint messageCount;\n        mapping(uint => Message) messages;\n    }\n\n    event MessageCreated(\n        uint count,\n        uint timestamp\n    );\n\n    mapping(address => Client) private clients;\n\n    function createMessage(string memory _content, address reciever) public{\n        Client storage recv = clients[reciever];\n\n        if (!recv.initialized) {\n            recv.initialized = true;\n            recv.messageCount = 0;\n        }\n        uint timestamp = block.timestamp;\n        recv.messages[recv.messageCount] = Message({\n            content: _content,\n            senderAddr: msg.sender,\n            time: timestamp\n        });\n        recv.messageCount++;\n\n        emit MessageCreated(recv.messageCount, timestamp);\n    }\n\n    function geClientCount(address client) public view returns (uint) {        \n        Client storage cli = clients[client];                \n        return cli.messageCount;\n    }\n\n    function getLastMessages(address reciever, address sender, uint offset, uint count) public view returns (Message[] memory) \n    {        \n        Client storage recv = clients[reciever];  \n        Client storage sndr = clients[sender];\n\n        Message[] memory res = new Message[](2*count);\n                \n        uint j = 0;\n        \n        offset++;\n        if((offset-1) < recv.messageCount){\n            for (uint i = recv.messageCount; i > 0; i--) \n            {\n                if(j>=count) break;\n                if(sender == recv.messages[i-offset].senderAddr){\n                    res[j] = recv.messages[i-offset];\n                    j++;\n                }\n            }\n        }\n    \n        if((offset-1) < sndr.messageCount){\n            for (uint i = sndr.messageCount; i > 0; i--) \n            {   \n                if(j>=(2*count)) break;\n                if(reciever == sndr.messages[i-offset].senderAddr){\n                    res[j] = sndr.messages[i-offset];\n                    j++;\n                }\n            }\n        }\n\n        return res;\n    }\n}\n",
  "sourcePath": "/home/rpi/slavkaone/eth/contracts/MessageList.sol",
  "compiler": {
    "name": "solc",
    "version": "0.5.0+commit.1d4f565a.Emscripten.clang"
  },
  "schemaVersion": "3.0.1",
  "updatedAt": "2021-06-20T11:48:07.529Z",
  "devdoc": {
    "methods": {}
  },
  "userdoc": {
    "methods": {}
  }
}